:020000040800F2
:1000000070090020C5000008AD0F0008D50D0008DC
:1000100000000000000000000000000000000000E0
:10002000000000000000000000000000311900087E
:100030000000000000000000011000087D1A000808
:10004000F5000008F5000008F5000008F5000008BC
:10005000F5000008F5000008F5000008F5000008AC
:10006000000000006D060008F5000008F50000081B
:10007000F5000008E11A0008F5000008011B00085F
:100080001D1B00080000000000000000F500000833
:1000900000000000F5000008F5000008F500000869
:1000A00000000000F500000800000000F500000856
:1000B0000348854600F06EF8004800479125000887
:1000C000700900200C4880F308880C480168090E6C
:1000D0000B4A914205D10B480B4901600B480C4972
:1000E00001600C4880470C480047FEE7FEE7FEE74A
:1000F000FEE7FEE7FEE700007009002004000000B4
:100100001F00000018100240010000000000014024
:1001100000000000811A0008B100000830B50B464D
:10012000014600202022012409E00D46D5409D42D1
:1001300005D31D469540491B254695404019154657
:10014000521E002DF1DC30BD70B50024254600287C
:1001500001DA01244042002901DA01254942FFF772
:10016000DDFFAC4200D04042002C00D0494270BDBF
:10017000D2B201E00270401C491EFBD2704700223F
:10018000F6E710B513460A4604461946FFF7F0FF96
:10019000204610BD064C0125064E05E0E36807CC5D
:1001A0002B430C3C98471034B442F7D3FFF784FF3D
:1001B0001028000830280008F0B58BB00024282152
:1001C0006846FFF7DCFF0B4D6E46287800280BD001
:1001D00000202870A700B81900F052FDF1590898C6
:1001E0004018641CE4B20890072CEED908980BB0B4
:1001F000C008F0BD00000020836A0B4383624261A7
:1002000070470029816801D0012200E002221143D9
:10021000816070470029C16802D00122114301E0CA
:1002200049084900C1607047C26802239A43C2600E
:10023000C2680A43C2607047064910B5884208D1B7
:1002400044150121204600F043FF0021204600F024
:100250003FFF10BD00240140826800210123DB071D
:100260001A4382600F231B038268491CD20FD207F6
:10027000994201D0002AF7D18168002901DB006C86
:1002800070470020704702460020CB0104D59268D9
:1002900001231B069A4300E012680A4200D00120A5
:1002A0007047000030B5C368084A8C6813400A687C
:1002B0000D792243CC686D032C4322430C694969B4
:1002C00022430A431A43C26030BD000003D2FFFF3D
:1002D000012212030029C16801D0114300E09143BB
:1002E000C16070478168042211438160704700211A
:1002F000016001718160C16001614161704700006E
:10030000F8B5554D287A21287ED1544933200A7AF0
:100310001F270026524C212A02D1C979012904D075
:1003200050490A7A212A20D076E0A178332900D1D9
:100330003420A0706E8104E0012000F09BF80120C1
:100340002071454801F050F8012804D1434801F0DC
:100350004BF80128F0D0424801223C21801C02F0D9
:100360001BF82F726E813D4872E03E49C979012920
:1003700052D17D213C4AC9001160E181A0703B4807
:100380000A2107704180FF20F530E06104E002207F
:1003900000F070F8012020712F4801F025F80128A5
:1003A00004D1304801F020F80128F0D004220A21BD
:1003B0002E4801F0F1FF2D4804221421801C01F089
:1003C000EBFF04221E21284801F0E6FF2448042206
:1003D00028210E3001F0E0FF2148042232211C3098
:1003E00001F0DAFF1E4804223C21801C01F0D4FFFA
:1003F0002F722E611B486E8107724681A08B81B2DD
:10040000002000F01BF900E024E00121002000F0B2
:100410001FF9287A21281DD11548017A212919D1DF
:10042000C079012816D1266204E0032000F022F8EA
:1004300001202071084800F0D7FF012804D10C48A2
:1004400000F0D2FF0128F0D02F722E6108486E8193
:1004500046810772F8BD000004010020440100201D
:1004600060000020E4000020400000204400002044
:100470002401002070B500221449012805D047232B
:1004800002280ED0032813D018E011480F24057855
:10049000632007230C704870332D8B700DD13720EB
:1004A00004E00B703920487062238B70C87005E03F
:1004B0000B706D2048700E208870CA700A714A71E6
:1004C0008A71CA7100F09EFF70BD0000D800002044
:1004D00062000020FEB52F492D4808602D4A0421F6
:1004E00091800D2311468B71002151811161D171D1
:1004F000152616771F271772264C64226261254D38
:10050000254CAC612C46203401252D032060A580AC
:10051000A37161812161E1712677277262611E4AB0
:10052000A26122462032AD00106095809371518106
:100530001161D171167717720A255561C825956129
:1005400015462035012252032860AA80AB716981CB
:100550002961E9712E772F720A226A61C822AA6185
:100560000E4A00926A46117151710221D171694699
:1005700000F01EFB6946286800F01AFB69462068F7
:1005800000F016FB03486946006800F011FBFEBD51
:1005900000040048E40000208813000004700000FC
:1005A000054B012282401868002901D0104300E069
:1005B0009043186070470000007400401CB5012192
:1005C000480400F055FD0121480700F05DFD1020B2
:1005D000009003216846017100214171C171092019
:1005E0006946C00600F0E4FA1CBD000030B5074CB7
:1005F0002368074A8240934324C92A430D68496807
:100600000D432A4382401A43226030BD00740040EB
:10061000FE0F00001FB5FFF7D1FF3C200090002126
:100620000B20000201910391029069460020FFF720
:10063000DDFF01210020FFF7B3FF1FBD034A08B50E
:10064000101808300090016008BD000000740040E0
:1006500003090120044A98400029516801D0014350
:1006600000E08143516070470074004010B50220E3
:1006700000F09AF8002812D00B484178491CC9B202
:10068000417018290BD9094A0021515E41600121AE
:100690000170074801780748007800F073FF0220D6
:1006A00000F00AF810BD000000000020A4000020A7
:1006B0006000002090000020C10001D5024900E048
:1006C00002494860704700000004024000000240F8
:1006D0000029016802D00122114301E0014A1140C2
:1006E00001607047FEFF0000F0B501682B4A114021
:1006F00001600021016041608160C1602849284B90
:1007000008390F22984201D1486823E0244CF02395
:100710001434A04229D0224D1C012835A8422BD0E8
:100720001F4E1D023C36B0422DD01D4F1E035037C8
:10073000B8422FD01A4F6437B84204D148681A041F
:1007400008E04860F0BD164F7837B84204D14868D9
:100750000F2212061043F4E71249124F0839B8422B
:10076000D2D0104A1432904202D148681843E8E7C8
:100770000C4A2832904202D148682043E1E7094AF6
:100780003C32904202D148682843DAE7054A5032A9
:100790009042D7D148683043D3E70000FEFF000005
:1007A000080002400804024001460020CA0001D5AA
:1007B000034A00E0034A12680A4200D00120704751
:1007C0000004024000000240002A026801D00A43EF
:1007D00000E08A430260704730B503680C4A0C6A37
:1007E00013408A684D6922430C692C4322438C696B
:1007F0002243CC6922434C6A22438C6A22431A4327
:100800000260CA6842600A6882604968C16030BD9F
:100810000F80FFFF0021016041608160C1600161C4
:1008200041618161C1610162416281627047000082
:10083000F8B53D4D0026A8783C4C3D4F332830D1CB
:1008400020460A21027A615E3846C079002902D02A
:10085000202A04D033E0AE71202A04D02FE00129F1
:1008600004D0022907D003290AD028E0002826D185
:100870000120A87154E0002821D10220A87125E0B0
:1008800000281CD16681AE7147E0207A212805D16D
:10089000387A212802D1F87901281AD00120FFF7EF
:1008A000E9FDE0790128F0D02248C0790128ECD098
:1008B000F8790128E9D02048C0790128E5D0A87945
:1008C00000282AD001282BD0022801D100F0D2F82C
:1008D000F8BDA878332804D03320A8702E71668123
:1008E00005E03420A870FAE70120FFF7C3FD0F48A8
:1008F00000F07AFD012804D10D4800F075FD0128B3
:10090000F2D0094801223C21801C01F045FD1F2046
:10091000207266817E813872C3E700F00FF8F8BD5F
:1009200000F0E4F8F8BD00006000002004010020A1
:1009300044010020E400002024010020F8B5464CCA
:10094000208B01B20E20205E00F07CFD434821790F
:10095000C079084375D1A078332872D10E26A65FDE
:10096000A6823F4D00960A20285EE17A0027884241
:1009700002D0297A202903D0E879012803D005E0A4
:10098000E0726F8119E0287A21280ED02020287289
:10099000344E0A20305EE17A884202D0307A202834
:1009A0001CD0F07901281BD01DE06F817D212869C2
:1009B0000901884204D8142108E0761CE681E7E7A3
:1009C0002949421829498A4205D80A21FFF7A6FB7E
:1009D0000029F2D0DCE7C007EFD0D9E7778115E036
:1009E000307A21280AD0202030720E21615E0098D2
:1009F000884226D0F07900281AD022E077817D2124
:100A000030690901884205D2142109E0E089401EBD
:100A1000E081EAE71449421814498A4205D20A21C2
:100A2000FFF77CFB0029F1D0DFE7C007EED0DCE761
:100A3000E879002805D10848042228210E3001F069
:100A4000ABFC0E21615E0A48814201DBE081F8BD0A
:100A50001429FCDC1420F9E76000002004010020C8
:100A600024010020440100202FF8FFFFCF070000E1
:100A7000FF0F000070B51A4C607A00F057FD19485E
:100A80000A21415EA27A0126002591420ED0027A07
:100A9000202A0BD1A1724581607A00281BD0657293
:100AA0000F4801220A21093001F076FC0E480A2184
:100AB000415EA27A91420DD0017A20290AD1458166
:100AC000607A002809D06572054801220A210930A0
:100AD00001F062FC70BD6672E2E76672F4E7000046
:100AE000600000202401002044010020F8B5204CC3
:100AF000E07900F033FD1F480A21415E227A092780
:100B00000126FF060025914213D0027A202A10D137
:100B100021724581E079002825D0E5711448012231
:100B20001421C01D01F038FCE2790421384600F0A0
:100B3000A1F811480A21415E227A914212D0017A2D
:100B400020290FD14581E07900280ED0E5710848B1
:100B500001221421C01D01F01FFCE2790421384656
:100B600000F088F8F8BDE671D8E7E671EFE700001D
:100B700060000020240100204401002010B50A4933
:100B80000B680A4883614A68C261896801628468A7
:100B9000A34207D1C3689A4204D10069814201D1BE
:100BA000012010BD002010BD0080000800000020C2
:100BB000F0B50022012423460D6893401D409D425C
:100BC0002AD10D79012D01D0022D12D1876855004F
:100BD0000326AE40B74387604E79AE4085682E430A
:100BE000866085889D43858085888B7993401D43E9
:100BF0008580066855000323AB409E4306600E794E
:100C00000768AE403E430660C6689E43C660CB7927
:100C1000AB40C5682B43C360521C102ACBD3F0BD38
:100C20004B07DB0E9A40C90810B589000818016A05
:100C30000F249C40A1430162016A1143016210BD6F
:100C40000246128A00200A4200D001207047024664
:100C5000928A00200A4200D00120704704490160B6
:100C600000210171012242718171C1717047000040
:100C7000FFFF0000002A01D08161704701857047A5
:100C800001490968016070470400002010B501F0B7
:100C900041FB0028FBD0214801F021F901220A2163
:100CA0001F4801F043FB0028F8D01D480122142101
:100CB000801E01F03BFB0028F7D004221E211948BA
:100CC00001F034FB0028F8D0154804222821401DEB
:100CD00001F02CFB0028F7D01148042232211330F8
:100CE00001F024FB0028F7D00D4801223C21C01F51
:100CF00001F01CFB0028F7D0094C0920093CE279DF
:100D00000421C006FFF7B6FFA08B81B20020FFF7D9
:100D100095FC01210020FFF79BFC10BD701700001F
:100D2000690000204000002010B5002404E00A21E2
:100D3000FFF7F4F9641CE4B20028F8D1204610BD96
:100D4000F8B51F4D00261F4C2E6135E01E48017876
:100D5000CA0607D5EF22114001700022114601207A
:100D600000F084FC0127207A212822D11AE0FFF725
:100D700023FAA86069686E60081840081349E860A3
:100D800008802F706681E6711F2020720C480422B3
:100D900028210C3001F000FB042232210C4801F024
:100DA000FBFAE0E7E0790028D0D1E0E7207A2128BB
:100DB000CCD0E0790128F9D028780028F9D0F8BD06
:100DC0004C000020E4000020910000206E00002074
:100DD0007C000020FEE70000FEB50121480400F081
:100DE00047F90121880400F043F90121C80400F00B
:100DF0003FF90121080500F03BF90121480500F009
:100E000037F90121880500F033F96846FFF726FF1E
:100E100001256846009505710024847103264671FA
:100E2000C57169461648FFF7C3FEEF026846009792
:100E30000571847146710926C571F606694630460A
:100E4000FFF7B6FE6846009704714471C4716946A5
:100E50000B48FFF7ADFE0420009068460571447111
:100E6000C47169463046FFF7A3FE28020090684629
:100E700005714471C47169463046FFF799FEFEBDA5
:100E800000040048F8B5484800F0AEFA464C012589
:100E90000026012805D0204600F0A6FA002805D03B
:100EA00005E02069401C2061E57100E0E6712069E1
:100EB000002802D0E179002905D0A169884205D92E
:100EC000E079012802D1384800F09BF836482038F4
:100ED00000F08AFA344F203F012805D0384600F050
:100EE00083FA002805D005E03869401C3861FD719F
:100EF00000E0FE713869002802D0F979002905D098
:100F0000A169884206D9F879012803D126482038FA
:100F100000F077F82448203000F066FA224C2034A4
:100F2000012805D0204600F05FFA002805D005E032
:100F30002069401C2061E57100E0E671206900280D
:100F400002D0E179002905D0A169884206D9E0796B
:100F5000012803D11448203000F053F812484030E3
:100F600000F042FA104F4037012805D0384600F013
:100F70003BFA002805D005E03869401C3861FD7156
:100F800000E0FE713869002802D0F979002905D007
:100F9000A169884206D9F879012803D10248403076
:100FA00000F02FF8F8BD0000040100207047000099
:100FB00030B5837801210278002B15D094080E4BB0
:100FC000A400E41823689207D50EFF22AA40934399
:100FD00042789207120EAA401A4322600078C00697
:100FE000C00E8140054804E0D006C00E8140034891
:100FF0008030016030BD000000E400E000E100E06E
:10100000704730B582790021212320240D2A09D090
:101010000B2A14D00C2A11D184690269A2420DD383
:10102000037207E085690269AA4208D30372C27994
:10103000002A03D101614189491C418130BD0472FC
:10104000F8E7000009494A6801239B039A434A6074
:101050004A6883B21A434A600A6B8B159A430A6343
:101060000A6B000C02430A63704700000010024044
:10107000044A0029516901D0014300E081435161D4
:101080007047000000100240044A0029D16901D0D5
:10109000014300E08143D16170470000001002402D
:1010A000044A0029116901D0014300E08143116124
:1010B0007047000000100240044A0029916901D0E5
:1010C000014300E08143916170470000001002403D
:1010D000044A0029D16801D0014300E08143D16076
:1010E000704700000010024010B500F029F8012000
:1010F00000F03CF9012000F00DF90028FAD00020A2
:1011000000F02AF9002000F03FF90521C904002071
:1011100000F052F9012000F041F90848FFF792FF72
:10112000192000F0F7F80028FAD0022000F052F958
:1011300000F00AF90828FBD110BD000000400001B2
:10114000124801680122114301604168104A1140B0
:10115000416001680F4A1140016001680122920458
:101160009143016041683F22120491434160C16A8A
:1011700009090901C162016B074A11400163416B12
:101180004908490041630021816070470010024016
:101190000CB8FFF8FFFFF6FEACFEF0FFF8B5564DB9
:1011A0000446686800210C22544E104005D00428E3
:1011B00003D0082803D00C281AD026601AE06968EA
:1011C000686803228902D2030F0F1040BF1C002859
:1011D0000AD0E86A0107090F3046491CFEF79EFF56
:1011E00078430146216005E0454839464143F9E727
:1011F000444820606868444F0006000F3B5C20684C
:101200000246DA4062606B685B055B0FFB5CDA40AC
:10121000A2602B6BDB0501D43C4B05E06B685B04E3
:1012200001D4530800E09308E3602B6B5F06384B52
:1012300003D4374F1237276100E023612F6BFF067D
:1012400001D4666100E060612F6BBF070ED02F6B89
:10125000BF07BF0F012F0BD02F6BBF07BF0F022F90
:1012600008D02F6BFF43BF0706D006E0A26104E061
:10127000A06102E0A36100E0A6612F6BBF03BF0F76
:101280000FD02F6BBF03BF0F012F0CD02F6BBF03ED
:10129000BF0F022F09D02F6BBF03BF0F032F06D044
:1012A00006E0E26104E0E06102E0E36100E0E661A3
:1012B0002F6B3F03BF0F0FD02A6B1203920F012A2F
:1012C0000CD0286B0003800F022809D0286B000384
:1012D000800F032806D006E0226204E0206202E0CC
:1012E000236200E02662286B000602D40548606293
:1012F000F8BD6162F8BD00000010024000127A00E3
:1013000000093D00006CDC0292000020809FD500A7
:1013100000800000034600200A495A090CD0012A27
:101320000CD0022A0CD0496BDA06D20E012393406E
:101330000B4200D0012070470968F5E7096AF3E71E
:10134000496AF1E700100240024840680C21084059
:101350007047000000100240034A5168F02399438F
:101360000143516070470000001002400549002809
:10137000086802D00122104301E0400840000860E4
:101380007047000000100240034A516807231B0207
:101390009943014351607047001002400122054902
:1013A00012060028086801D0104300E0904308604E
:1013B000704700000010024010B5054A53687B24B6
:1013C000E403A3435360536808430343536010BDD1
:1013D00000100240034A51688908890001435160A6
:1013E000704700000010024010B504468188006874
:1013F000FFF726FC217F152902D1012800D000200B
:1014000010BD000070B50D4C0B4821782546405C9E
:101410000C350B4A28704900515A696001F072F985
:10142000686801F01BF92078411C2170082801D35D
:101430000020207070BD0000D80000202400002093
:10144000AC270008F3B581B00298FFF76DFC0746A2
:101450000198FFF769FC00900A210298FEF774FEDC
:10146000024648002F4D304C285C00262070022F89
:1014700007D310460A21FEF767FE4800285C60701B
:1014800000E06670032F0AD364210298FEF75CFE29
:101490000A21FEF759FE4800285CA07000E0A67003
:1014A00038467D27FF0004280AD339460298FEF704
:1014B0004BFE0A21FEF748FE4800285CE07000E081
:1014C000E6700A210198FEF73FFE4900695C217130
:1014D0000099022906D30A21FEF736FE4800285C4F
:1014E000607100E06671009803280AD364210198B6
:1014F000FEF72AFE0A21FEF727FE4800285CA071AD
:1015000000E0A671009804280AD339460198FEF736
:101510001BFE0A21FEF718FE4800285CE071FEBDA4
:10152000E671FEBDBE270008D800002010B50024DB
:10153000094963234E22002804D0622008704B70B2
:101540008C7002E00A704A708B70CC700A714A711C
:101550008B714720C87110BDD800002000220849B7
:10156000002801D0762000E0072008704A708A70B9
:10157000CA700A714720487188717E20C87170470F
:10158000D8000020044A1E39884201DC362000E0E1
:101590000020107270470000D8000020F3B581B021
:1015A00007460298FFF7C0FB00252D4C0646012F89
:1015B00005D0022F1CD025706570A57046E02570FF
:1015C0006570A5702748E570017A002909D030219F
:1015D0002171472161714F21A1716D21E171057266
:1015E000FEBD25716571A571E57101210172FEBD18
:1015F0000A210298FEF792FD49001B4F022E795CEA
:10160000217006D30A21FEF789FD4800385C60701E
:1016100000E06570032E0AD364210298FEF77EFD78
:101620000A21FEF77BFD4800385CA07000E0A57041
:10163000042E0BD37D21C9000298FEF76FFD0A210D
:10164000FEF76CFD4800385CE07000E0E57030208B
:101650002071472060714F20A0716D20E071FEBDA8
:10166000D800002024000020BE270008F7B5074658
:101670000298FFF759FB00252D4C0646012F05D097
:10168000022F1CD025706570A57046E0257065702E
:10169000A5702848E570417A002909D05B212171A5
:1016A000472161714F21A1716D21E1714572FEBD2C
:1016B00025716571A571E57101214172FEBD0A2197
:1016C0000298FEF72BFD49001B4F022E795C21701A
:1016D00006D30A21FEF722FD4800385C607000E066
:1016E0006570032E0AD364210298FEF717FD0A21C4
:1016F000FEF714FD4800385CA07000E0A570042ED1
:101700000BD37D21C9000298FEF708FD0A21FEF7E0
:1017100005FD4800385CE07000E0E5705B2020715A
:10172000472060714F20A0716D20E071FEBD000068
:10173000D800002024000020BE270008FEB50121AB
:101740004804FFF795FC01218804FFF791FC012173
:10175000C804FFF78DFC01210805FFF789FC012172
:101760004805FFF785FC01218805FFF781FC6846E5
:10177000FFF774FA0120800200900124684604718A
:101780000025857103214171C47109206946C00695
:10179000FFF70EFA200300906846047185714571C9
:1017A000C47109206946C006FFF702FA402769465E
:1017B0005C480097FFF7FCF9802000906946594883
:1017C000FFF7F6F9E60309206946C0060096FFF721
:1017D000EFF9600300906846047185714571C4712A
:1017E00069465148FFF7E4F9A003009069464E4866
:1017F000FFF7DEF969464C480096FFF7D9F96846CD
:101800000094047185714571C47169464548FFF7BC
:10181000CFF9694643480094FFF7CAF90097684634
:101820000471857145710221C171404F6946384686
:10183000FFF7BEF92402694638460094FFF7B8F96D
:101840000820009069463846FFF7B2F965006946FE
:1018500038460095FFF7ACF980200090694638467D
:10186000FFF7A6F92020009069463846FFF7A0F957
:101870001020009069463846FFF79AF909200122A6
:101880003146C006FFF7F6F9012280212548FFF70F
:10189000F1F9012240212348FFF7ECF90122092048
:1018A0001103C006FFF7E6F9012251031E48FFF7B6
:1018B000E1F9012291031C48FFF7DCF901223146CE
:1018C0001948FFF7D7F9012202211648FFF7D2F98C
:1018D000012211461348FFF7CDF901224021384675
:1018E000FFF7C8F9012221463846FFF7C3F9012264
:1018F00008213846FFF7BEF9012229463846FFF78E
:10190000B9F9012280213846FFF7B4F901222021DC
:101910003846FFF7AFF9012210213846FFF7AAF940
:10192000FEBD000000140048000800480004004804
:1019300070470000F8B51D4C6079012811D0607A1D
:1019400001260927F602FF06002805D0012808D144
:101950002078002806D00AE0002231463846FFF7FA
:1019600089F9F8BD01211248FFF771F92073207B36
:10197000002501280DD1607B00280AD1207800289D
:101980000CD1012020700246258231463846FFF7EF
:1019900071F92078002801D1207B60731020205E2F
:1019A000FA28DEDB25702582D6E7000060000020E3
:1019B0000004004813491120086013484168416041
:1019C0004168416041687F22D20391434160416890
:1019D0000522D2041143416001680122120611431D
:1019E000016001688901FCD541688908890041606E
:1019F000416802221143416041680907890F0229A9
:101A0000FAD170470020024000100240FEB5194C88
:101A10000125607909272E02FF06012812D0E9026C
:101A20001548FFF70DF9002821D000206071E07003
:101A3000694600960871C8713846FFF7B9F86079B1
:101A4000002813D0606A642810D3E57068460096B9
:101A500005710221C17169463846FFF7A9F80022D5
:101A600031463846FFF706F9A06AE062FEBD6571AF
:101A7000E8E7000060000020000400487047000014
:101A800010B5144801680122114301604168124AEF
:101A9000114041600168114A114001600168012252
:101AA00092049143016041683F22120491434160D6
:101AB000C16A09090901C162016BFF2254329143D5
:101AC0000163416B49084900416300218160FFF7D0
:101AD00071FF10BD001002400CB8FFF8FFFFF6FECA
:101AE00010B5064C0121204600F0EEF8002803D086
:101AF0000121204600F069F810BD0000002C0140D3
:101B000010B501218C07204600F0DEF8002803D034
:101B10000121204600F059F810BD000070B51D4E9F
:101B20000121304600F0D0F8002832D01A4C60690C
:101B3000401C60610A216069FEF7F0FA0025002967
:101B400019D116480078002803D015490888401C90
:101B50000880FFF757FCFFF795F912480168491C08
:101B60000160114811490078002803D00868401C22
:101B7000086000E00D6060690D49884205D30D489A
:101B8000102201781143017065610121304600F097
:101B90001CF870BD00040040000000206000002020
:101BA00070000020880000206500002084000020D4
:101BB000881300009100002080220029018801D0B4
:101BC000114300E0914301807047C943018270478F
:101BD0000029018802D00122114301E0490849008F
:101BE0000180704740300029818803D00122D20350
:101BF000114301E04904490C818070472A4910B51E
:101C0000884202D10121C4143AE0012189078842A7
:101C100006D101210846FFF743FA0021012008E020
:101C20002249884208D101210220FFF739FA002118
:101C30000220FFF735FA10BD1D49884206D1012167
:101C40001020FFF72DFA00211020F2E719498842F1
:101C500006D101212020FFF723FA00212020E8E708
:101C60001549884207D1841501212046FFF718FA4B
:101C700000212046DDE71149884209D101210C04E9
:101C80002046FFF725FA00212046FFF721FA10BD74
:101C90000B49884202D101214C04F1E709498842ED
:101CA000F5D101218C04EBE7002C01400004004039
:101CB000001000400014004000200040004001409F
:101CC00000440140004801400246138A00209289E6
:101CD0000B400A40002B02D0002A00D001207047A0
:101CE000002A828901D00A4300E08A43828170473A
:101CF00030B5028C520852000284038C8288048B17
:101D00007025AC43A4080D88A40025430224A343F6
:101D10008C891C434B8823430F4CA04208D00F4CA6
:101D2000A04205D00E4CA04202D00E4CA0420DD1D4
:101D30000824A343CC891C4304239C438B8823435E
:101D4000094C22400C8A14434A8A2243828005832C
:101D500089684163038430BD002C0140004001408C
:101D60000044014000480140FFFC0000028B0823B2
:101D70009A430A430283704770B5028C10239A433A
:101D80000284048C8288038B1A4D2B400D782D061B
:101D90002D0C1D4320239C438B891B051E0C4B8857
:101DA00026431B051B0C144C3343A04202D0134E98
:101DB000B04219D1124E32400E8AB604360C32436C
:101DC000A04211D18024A343CC892405240C1C43B8
:101DD00040239C438B881B051B0C2343094C22404A
:101DE0004C8AA404240C2243828005838968816381
:101DF000038470BDFF8C0000002C014000400140B6
:101E0000FFFB0000FFF70000028B034B09021A40A2
:101E10001143018370470000FFF70000028970231F
:101E20009A430A4302817047028980239A430281C0
:101E300002890A4302817047828870239A43828014
:101E400082880A43828070470289D208D2000281C8
:101E500002890A430281704710B50288144B9842E8
:101E600006D00124A407A04202D0124CA04203D104
:101E70007024A2434C8822430F4CA04203D00F4C45
:101E800022400C89224302804A68C2620A88028585
:101E9000984208D00A4A904205D00A4A904202D09D
:101EA000094A904201D1897A01860121818210BDBF
:101EB000002C01400004004000100040FFFC000026
:101EC0000040014000440140004801400021C94356
:101ED00041600021018001814180817270470021B1
:101EE0000A22504300E0491C8842FCD8704702E0B7
:101EF00008C8121F08C1002AFAD170477047002095
:101F000001E001C1121F002AFBD1704730B5012149
:101F100087B04802FFF7D0F81C4C2046FEF78CF93A
:101F20006846FEF7E4F900216846017180200390BD
:101F3000C000009104910591029069462046FEF789
:101F4000B1F901212046FEF7C3F9032208212046FA
:101F5000FEF752F92046FEF77FF901212046FEF7F1
:101F600050F90B4D20462946FEF78DF90028F9D08F
:101F700001212046FEF74EF902212046FEF754F9D2
:101F80002046FEF7AFF907B030BD00000024014045
:101F90000100000170B501218CB00846FFF768F818
:101FA0000921684601700125857000244470FEF700
:101FB000FFFF154E3046FEF797FB01A8FEF72AFCFF
:101FC000124802900394A80208900B948020069077
:101FD0000495202009900E480190801507900594E3
:101FE00040010A9001A93046FEF7F6FB01220221CA
:101FF0003046FEF7E9FB0220FEF75EFB012130468A
:10200000FEF766FB0CB070BD08000240A400002083
:10201000402401401CB501214804FFF729F8684617
:10202000FEF71CFE0820009003206946087100207E
:10203000887148710120C8710920C006FEF7B8FDFB
:102040001CBD0000F0B58BB001210220FFF71CF889
:102050000121C802FFF730F801210846FFF714F804
:1020600001214804FFF704F804A8FEF7F7FD6D48C6
:102070000490022668460675032747750024092543
:10208000C475ED0604A92846FEF792FD0222002140
:102090002846FEF7C5FD022201212846FEF7C0FDB5
:1020A000022209212846FEF7BBFD0D216846017377
:1020B00001258573457303A8FEF77AFF0F21684653
:1020C00001738573467303A8FEF772FF10216846FB
:1020D00001738573477303A8FEF76AFF5248FFF741
:1020E0008DFD6846FFF7F2FE6846048144801420A7
:1020F00001902F2168460180847269464A48FFF7A3
:10210000ABFE012211464848FFF7EAFD012146488F
:10211000FFF75EFDA807FFF771FD6846FFF7D6FEE3
:102120006846048144800C20019017216846018094
:1021300084726946A807FFF78FFE60216846018315
:102140004583848406A9A8070896FFF7D1FD0821D6
:10215000C806FFF70BFE06A9A8070897FFF70CFEB5
:102160000821C806FFF750FE01218807FFF724FD6C
:10217000012211469007FFF7B3FD20214806FFF723
:102180005BFE0021A807FFF749FE05218807FFF73E
:102190005BFE8021C805FFF747FE01218807FFF796
:1021A00017FD17216846018044800C200190684685
:1021B0001E4F847269463846FFF74EFE602168461E
:1021C00001834583848384840821C1844901018576
:1021D000448506A938460896FFF7CEFD0821384603
:1021E000FFF712FE012211463846FFF779FD012163
:1021F0003846FFF7E1FC10213846FFF71DFE0121AC
:102200003846FFF7E2FC80213846FFF70DFE01213A
:102210003846FFF7E7FC01213846FFF7D9FC0BB041
:10222000F0BD00000302000000040040002C01404B
:102230001CB501214C042046FEF71AFF012120465F
:10224000FEF716FF01206946087188710020C871E9
:102250000320487180200924E40600902046FEF700
:10226000A7FC4020009069462046FEF7A1FC00F044
:1022700067F91CBDFEF70AFD214C224D618A2248F8
:10228000224E8B001A1836681660C0582A68491CFE
:10229000121888B22A6060827F2804D900206082E8
:1022A0000120607002E06078002804D00020607097
:1022B000D109A1612860FFF7A9FBFF270137144E60
:1022C0000FE0092000223946C006FEF7D3FCE16A80
:1022D000A06A401AB04204D30020E07060626071CE
:1022E00002E0E0780028ECD1FFF724FBFEF7A0FA2B
:1022F000FEF706F8A0783328C0D100F06FF9BDE7EB
:10230000600000206405002064010020040000201B
:102310001027000010B5A02000F08EF8002803D090
:1023200000F00EF9002010BD012010BDF8B51546D3
:102330000C46064600F0F0F8A02000F0C9F800F0C6
:102340000DF900280FD1E0B200F0C2F800F006F954
:10235000002808D100F0E0F8A12000F0B9F800F062
:10236000FDF8002803D000F0EBF80020F8BD0024B1
:102370006F1E0BE000F090F83055BC4202D000F028
:1023800047F801E000F076F8641CA4B2AC42F1D347
:1023900000F0D6F80120F8BDF7B517460C46002529
:1023A00030E0002D01D060071CD100F0C9F80026F4
:1023B00000F0B2F8A02000F08BF800F0CFF8002871
:1023C00005D0761C7D20B6B2C0008642F0D37D20B9
:1023D000C00086420ED0E0B200F07AF800F0BEF8FD
:1023E000002807D10098405D00F072F800F0B6F8C0
:1023F000002803D000F0A4F80020FEBD641C6D1C72
:10240000A4B2ADB2BD42CCD300F09AF80120FEBD1B
:10241000F8B5084D40242C8100F026F809278026C5
:10242000FF06BE6100F020F82E8100F01DF8BC61AF
:10243000F8BD00002000004810B509210446C90677
:10244000088A40060ED5088A00060BD500F064F80D
:10245000204600F03DF800F081F8044600F070F8E6
:10246000204610BD012010BD0020401CC0B21E2817
:10247000FBD3704770B509244020E406A061FFF744
:10248000F3FF8025A561FFF7EFFF02480581FFF705
:10249000EBFF70BD20000048F8B500240927FF06B7
:1024A000254680266006040EBE61FFF7DDFF388AF0
:1024B000400601D5641CE4B204480681FFF7D4FF4E
:1024C0006D1CEDB2082DEDD32046F8BD200000486C
:1024D000F8B50024802709260546F606280602D509
:1024E0004020B06102E00B4940200881FFF7BCFFAB
:1024F000B761FFF7B9FF07480781072C01D14020DA
:10250000B0616806050EFFF7AFFF641CE4B2082C4B
:10251000E4D3F8BD2000004870B540250920C0066E
:10252000856180248461FFF79FFF044E3581FFF7AA
:102530009BFF3481FFF798FF70BD0000200000482A
:1025400070B505484024048109258020ED06A86166
:10255000FFF78AFFAC6170BD2000004870B5092408
:102560004020E406A061FFF77FFF8025A561FFF70B
:102570007BFF208A400601D5012400E000240348A7
:102580000581FFF771FF204670BD00002000004864
:1025900010B5FEF7A9FDFFF7D1F800F0FDF80D48E2
:1025A000FEF7FCFDFFF744FEFEF734F8FEF714FCDF
:1025B000FDF790FFC820401E00B20028FBDCFEF7AC
:1025C000DDFA05490028887003D0FFF753FE00208C
:1025D00010BDFEE7B000002000000020F8B51A4C46
:1025E000E07901282ED11948C07901282AD0184D48
:1025F000FDF7E2FD68607D20C000FFF770FC154F1D
:102600001F2619E002206968FEF7C8FF207A2128FA
:1026100012D1E079012815D16089A0812020207293
:10262000002078810C493E7248810E72074948812A
:102630000E722870FEF784FB207A2028E2D0E07921
:102640000128D5D0F8BD0000E400002004010020DE
:102650004C0000202401002044010020F0B5204C53
:102660002049214DC20701D0A16100E029811F4B03
:10267000870780261D4A2033002F01DA966100E08B
:102680001E8147074026002F01DA966100E01E8177
:10269000174E070701D5A66100E02E81154E164C96
:1026A000164DC70601D5A66100E02E81144E87069F
:1026B00001D5A66100E02E81460601D5A16100E0AA
:1026C000298104060221002C01DA916100E01981C0
:1026D000C1050120002901DA9061F0BD1881F0BD2B
:1026E000000000480080000020000048001400485E
:1026F00000100000002000000008004820080048EA
:102700000040000070B50446204DC00701D00022F3
:1027100000E0012240212846FEF7ACFA1C49A00740
:1027200001D5002200E001222846FEF7A3FA600747
:1027300001D5002200E0012208212846FEF79AFA7E
:102740001449200701D5002200E001222846FEF7A7
:1027500091FAE00601D5002200E0012280212846FE
:10276000FEF788FAA00601D5002200E00122202110
:102770002846FEF77FFA600601D5002200E001221C
:1027800010212846FEF776FA70BD000000040048CC
:10279000000100000002000010B5FFF73BFCFFF74E
:1027A000B5FBFFF7F7FBFFF74DFC10BDFEFFFDFF8C
:1027B000FBFFF7FFEFFFDFFFBFFF7FFFFFFE3F00E5
:1027C00030005B00790074006D006F0038007F00FE
:1027D0007D007E0067000F0073004F004E00400038
:1027E0006300620023006D004700000007005E00E8
:1027F0004E00760039000E000100020004000800BF
:102800001000200040008000FF00000037000000A2
:102810003028000800000020A4000000EE1E000880
:10282000D4280008A4000020CC080000FE1E0008E8
:102830000000000000000000101900004319000013
:1028400072190000000000000000000000000000FD
:102850000000000000010101010101010000000071
:102860000000000000000000000000000000000068
:10287000E80300001F000A00000000000000000044
:102880000000000000000000000000000000000048
:102890000000330000000000000000000000E8031A
:1028A000000000000000000000000000F401000033
:1028B0000000000000000000000000000000000018
:1028C00000000000000001020304010203040607E7
:0428D00008090000F3
:04000005080000B13E
:00000001FF
